{"abi":[{"type":"function","name":"plus","inputs":[{"name":"input1","type":"uint256","internalType":"uint256"},{"name":"input2","type":"uint256","internalType":"uint256"}],"outputs":[{"name":"","type":"uint256","internalType":"uint256"}],"stateMutability":"pure"}],"bytecode":{"object":"0x6080604052348015600f57600080fd5b5060d880601d6000396000f3fe6080604052348015600f57600080fd5b506004361060285760003560e01c806366098d4f14602d575b600080fd5b603c60383660046061565b604e565b60405190815260200160405180910390f35b6000605882846082565b90505b92915050565b60008060408385031215607357600080fd5b50508035926020909101359150565b80820180821115605b57634e487b7160e01b600052601160045260246000fdfea26469706673582212205f63c24939c8afce3f6a4597a836053ad5452cda8fc64c9fecbb734170b21ec064736f6c634300081a0033","linkReferences":{}},"methodIdentifiers":{"plus(uint256,uint256)":"66098d4f"},"id":0}