{"abi":[{"type":"function","name":"multiply","inputs":[{"name":"input1","type":"uint256","internalType":"uint256"},{"name":"input2","type":"uint256","internalType":"uint256"}],"outputs":[{"name":"","type":"uint256","internalType":"uint256"}],"stateMutability":"pure"}],"bytecode":{"object":"0x6080604052348015600f57600080fd5b5060dc80601d6000396000f3fe6080604052348015600f57600080fd5b506004361060285760003560e01c8063165c4a1614602d575b600080fd5b603c60383660046061565b604e565b60405190815260200160405180910390f35b6000605882846082565b90505b92915050565b60008060408385031215607357600080fd5b50508035926020909101359150565b8082028115828204841417605b57634e487b7160e01b600052601160045260246000fdfea2646970667358221220d89a9a4f4c01318f47c65df44af32abf79e30473335b2d6820096606a2ebe7be64736f6c634300081a0033","linkReferences":{}},"methodIdentifiers":{"multiply(uint256,uint256)":"165c4a16"},"id":0}