{"abi":[{"type":"function","name":"minus","inputs":[{"name":"input1","type":"uint256","internalType":"uint256"},{"name":"input2","type":"uint256","internalType":"uint256"}],"outputs":[{"name":"","type":"uint256","internalType":"uint256"}],"stateMutability":"pure"}],"bytecode":{"object":"0x6080604052348015600f57600080fd5b5060d880601d6000396000f3fe6080604052348015600f57600080fd5b506004361060285760003560e01c8063f4f3bdc114602d575b600080fd5b603c60383660046061565b604e565b60405190815260200160405180910390f35b6000605882846082565b90505b92915050565b60008060408385031215607357600080fd5b50508035926020909101359150565b81810381811115605b57634e487b7160e01b600052601160045260246000fdfea2646970667358221220cd3a77a0a34a79e77bef89b669d4e0eda6eb1b0ea4d524b264a24d0ac8ccac2164736f6c634300081a0033","linkReferences":{}},"methodIdentifiers":{"minus(uint256,uint256)":"f4f3bdc1"},"id":0}