{"abi":[{"type":"function","name":"divide","inputs":[{"name":"input1","type":"uint256","internalType":"uint256"},{"name":"input2","type":"uint256","internalType":"uint256"}],"outputs":[{"name":"","type":"uint256","internalType":"uint256"}],"stateMutability":"pure"}],"bytecode":{"object":"0x6080604052348015600f57600080fd5b5060d780601d6000396000f3fe6080604052348015600f57600080fd5b506004361060285760003560e01c8063f88e9fbf14602d575b600080fd5b603c6038366004605f565b604e565b60405190815260200160405180910390f35b6000605882846080565b9392505050565b60008060408385031215607157600080fd5b50508035926020909101359150565b600082609c57634e487b7160e01b600052601260045260246000fd5b50049056fea26469706673582212202fd88d4edc9f88bbb785196d3d00c6c1d78d95a3542c4d0be0f607fd0e72b94c64736f6c634300081a0033","linkReferences":{}},"methodIdentifiers":{"divide(uint256,uint256)":"f88e9fbf"},"id":0}